:100000000C94C3000C94D5000C94D5000C94D5002E
:100010000C94D5000C94D5000C94D5000C94D5000C
:100020000C94D5000C94D5000C94D5000C94D500FC
:100030000C94D5000C94D5000C94D5000C94D500EC
:100040000C94D5000C94D5000C94D5000C94D500DC
:100050000C94D5000C94D5000C94D5000C94D500CC
:100060000C94D5000C94D5000C94D5000C94D500BC
:100070000C94D5000C94D5000C94D5000C94D500AC
:100080000C94D5000C94D7000C94D50000407A1045
:10009000F35A00A0724E18090010A5D4E80000E839
:1000A0007648170000E40B54020000CA9A3B000097
:1000B00000E1F505000080969800000040420F0026
:1000C0000000A08601000000102700000000E803E7
:1000D000000000006400000000000A0000000000B2
:1000E0000100000000002C76D888DC674F0823DF71
:1000F000C1DFAE59E1B1B796E5E3E453C63AE65144
:10010000997696E8E6C28426EB898C9B62ED407C6A
:100110006FFCEFBC9C9F40F2BAA56FA5F490055A06
:100120002AF75C936B6CF9676DC11BFCE0E40D472B
:10013000FEF520E6B500D0ED902E0300943577054E
:100140000080841E080000204E0A000000C80C3306
:100150003333330F986E12831141EF8D2114893B95
:10016000E65516CFFEE6DB18D1844B381BF77C1D15
:10017000901DA4BBE424203284725E228100C9F168
:1001800024ECA1E53D2711241FBECFEFD0E1DEBF57
:10019000CDBF21E0A0E0B1E001C01D92A43AB207BA
:1001A000E1F70E941A0C0C94D4120C9400001F92D8
:1001B0000F920FB60F9211240BB60F922F933F930D
:1001C0004F935F936F937F938F939F93AF93BF935F
:1001D000EF93FF93E0917D01EF5FE0937D018091CC
:1001E0000201882349F0F0E0EE0FFF1FED5DFE4FA6
:1001F0000190F081E02D099581E080930101FF914C
:10020000EF91BF91AF919F918F917F916F915F918E
:100210004F913F912F910F900BBE0F900FBE0F90FB
:100220001F9018958CE08093700008951092010142
:10023000789485EA8093740080E58A95F1F780913F
:10024000010108951092010180937300789485E86C
:100250008093740080EA8A95F1F7809101010895F6
:10026000109201019FEF909373007894882311F00E
:1002700085EC01C085E88093740080EA8A95F1F7E7
:1002800080910101882319F080917300089580E026
:10029000089510920101789485E98093740080E5B7
:1002A0008A95F1F780910101089585EA80937400A1
:1002B000089580ED8093730085E88093740008951D
:1002C0008BE38093730085E880937400089585EA3A
:1002D00080937400089581ED8093730085E8809386
:1002E00074000895E3E7F0E08081809393018FEF3D
:1002F000808385EC809374000895E3E7F0E08081CB
:10030000809394018FEF808385EC8093740008952F
:10031000E3E7F0E08081809395018FEF808385ECA7
:10032000809374000895E3E7F0E080818093960164
:100330008FEF808385EC809374000895E3E7F0E00D
:100340008081809397018FEF808385EC8093740088
:100350000895E3E7F0E08081809398018FEF808338
:1003600085EC809374000895E3E7F0E0808180934A
:100370009F018FEF808385EC809374000895E3E7FD
:10038000F0E080818093A0018FEF808385EC8093E3
:1003900074000895E3E7F0E0808180931D018FEF02
:1003A000808385EC809374000895E3E7F0E080811A
:1003B00080931E018FEF808385EC809374000895F5
:1003C000E3E7F0E0808180931F018FEF808385EC6D
:1003D000809374000895E3E7F0E08081809320012A
:1003E0008FEF808385EC809374000895E3E7F0E05D
:1003F0008081809321018FEF808385E88093740052
:1004000008958091730080932201E4E7F0E085E98C
:10041000808385E18A95F1F7000085EA808308955D
:1004200088E18093730085E880937400089583E0E9
:100430008093730085E880937400089585EA809323
:100440007400089589E18093730085E880937400B7
:100450000895E3E7F0E08081809304018FEF8083CB
:1004600085EC809374000895E3E7F0E08081809349
:1004700003018FEF808385EC809374000895E3E798
:10048000F0E08081809306018FEF808385EC80937C
:1004900074000895E3E7F0E08081809305018FEF19
:1004A000808385EC809374000895E3E7F0E0808119
:1004B000809308018FEF808385EC8093740008950A
:1004C000E3E7F0E08081809307018FEF808385E888
:1004D000809374000895E4E7F0E085E980838FE776
:1004E0009EE30197F1F700C0000085EA808308953C
:1004F0008CEE8093730085E880937400089587EFF5
:100500008093730085E880937400089585EA809352
:10051000740008958DEE8093730085E880937400D5
:1005200008958FEF8093730085EC80937400089595
:100530000C9491020C949102E3E7F0E080818093A7
:100540007E018FEF808385EC809374000895E3E74C
:10055000F0E0808180937F018FEF808385EC809332
:1005600074000895E3E7F0E08081809380018FEFCD
:10057000808385EC809374000895E3E7F0E0808148
:10058000809309018FEF808385EC80937400089538
:10059000E3E7F0E0808180930A018FEF808385ECB0
:1005A000809374000895E3E7F0E0808180930B016D
:1005B0008FEF808385EC809374000895E3E7F0E08B
:1005C000808180931B018FEF808385E88093740086
:1005D00008958091730080931C0185E980937400D5
:1005E00008951092900084E389B988E08AB908954B
:1005F0009B01AC0184E0220F331F441F551F8A95D5
:10060000D1F760E074E284EF90E00E944A0E21503E
:1006100031093093900029B988E08AB908955D9B2B
:10062000FECF8CB908950F931F93CF93DF93EC0106
:100630008C01060F111DC017D10721F089910E946E
:100640000F03F9CFDF91CF911F910F910895CF93B1
:10065000DF93EC0188810E940F038981DF91CF91A4
:100660000C940F030E9413038AE00C940F030E9462
:1006700027038AE00C940F03E199FECF9F709FBB84
:100680008EBB81E08CBB8DB308951F93CF93DF9316
:10069000182FD62FC42F0E9416018823A9F0812F6E
:1006A000880F0E942201882379F08D2F0E94220159
:1006B000882351F08C2F0E942201882329F0DF919A
:1006C000CF911F910C94490180E0DF91CF911F9150
:1006D00008950F931F93CF93DF93C82FD62F8A01CE
:1006E0000E941601882309F18C2F880F0E94220195
:1006F0008823D9F08D2F0E9422018823B1F00E9417
:100700001601882391F08C2F880F81600E942201AE
:10071000882359F080E00E943001F8018083DF9146
:10072000CF911F910F910C94490180E0DF91CF91FF
:100730001F910F9108951F93CF93DF931F92CDB711
:10074000DEB7182F8093900140E86BE60E944503C6
:10075000811102C080E032C0AE014F5F5F4F65E79C
:10076000812F0E94690389818337A1F744E06AE100
:10077000812F0E944503882369F348E16BE1812FB3
:100780000E944503882331F348E16CE1812F0E94E8
:1007900045038823F9F244E06DE1812F0E9445036F
:1007A0008823C1F240E06CE6812F0E944503882334
:1007B00089F242E067E3812F0E9445030F90DF91A9
:1007C000CF911F910895EF92FF921F93CF93DF93E4
:1007D00000D000D0CDB7DEB7182F7B018093120177
:1007E000AE014C5F5F4F60E00E946903882309F40B
:1007F0009AC08C81883409F096C040E06AE0812F6D
:100800000E944503882309F48EC08FE39CE9019779
:10081000F1F700C000004FE06AE0812F0E9445031D
:10082000882309F480C0EFE3FCE93197F1F700C0B9
:100830000000AE014D5F5F4F60E1812F0E946903B0
:10084000AE014E5F5F4F61E1812F0E946903AE01EF
:100850004F5F5F4F62E1812F0E9469036B8170E0FF
:1008600060587109072E000C880B990B0E946C0FC1
:1008700020E030E040E85BE30E94F80F20E030E049
:1008800040E85FE30E948C0EF701608371838283EE
:1008900093836A8170E060587109072E000C880B01
:1008A000990B0E946C0F20E030E040E85BE30E946F
:1008B000F80F20E030E040E85FE30E948C0EF70183
:1008C0006483758386839783698170E060587109BA
:1008D000072E000C880B990B0E946C0F20E030E073
:1008E00040E85BE30E94F80F20E030E040E85FE37F
:1008F0000E948C0EF701608771878287938740E0A2
:100900006AE0812F0E944503882369F08FE39CE908
:100910000197F1F700C0000046E16AE0812F0E94D4
:100920004503811101C080E00F900F900F900F9050
:10093000DF91CF911F91FF90EF9008950F931F9338
:10094000CF93DF9300D0CDB7DEB78C01AE014E5F01
:100950005F4F6CE3809190010E946903811102C096
:1009600080E05AC0AE014F5F5F4F6BE38091900112
:100970000E9469038823A1F3898190E0982F88273A
:100980002A81822BF80191838083AE014E5F5F4FF5
:100990006EE3809190010E946903882309F3AE0100
:1009A0004F5F5F4F6DE3809190010E946903882340
:1009B000B9F2898190E0982F88272A81822BF8014B
:1009C00093838283AE014E5F5F4F60E4809190011C
:1009D0000E946903882321F2AE014F5F5F4F6FE3EE
:1009E000809190010E946903882309F4B9CF89811D
:1009F00090E0982F88272A81822BF80195838483A1
:100A000020813181232B39F422813381232B19F466
:100A1000892B09F4A5CF81E00F900F90DF91CF9142
:100A20001F910F910895EF92FF920F931F93CF9311
:100A3000DF937C01E9E9F1E00281138110270127AE
:100A40001027C481D581DC27CD27DC276081718107
:100A5000762767277627072E000C880B990B0E94B4
:100A60006C0F27EF3FEF4FEF59E30E94F80FF701AC
:100A70006083718382839383B801110F880B990B74
:100A80000E946C0F27EF3FEF4FEF59E30E94F80FE2
:100A9000F7016483758386839783BE01DD0F880B1E
:100AA000990B0E946C0F27EF3FEF4FEF59E30E9425
:100AB000F80FF701608771878287938781E0DF9164
:100AC000CF911F910F91FF90EF9008950F931F9377
:100AD000CF93DF9300D0CDB7DEB78C01AE014E5F70
:100AE0005F4F64E4809190010E946903811102C00C
:100AF00080E05AC0AE014F5F5F4F63E48091900188
:100B00000E9469038823A1F3898190E0982F8827A8
:100B10002A81822BF80191838083AE014E5F5F4F63
:100B200066E4809190010E946903882309F3AE0175
:100B30004F5F5F4F65E4809190010E9469038823B5
:100B4000B9F2898190E0982F88272A81822BF801B9
:100B500093838283AE014E5F5F4F68E48091900182
:100B60000E946903882321F2AE014F5F5F4F67E463
:100B7000809190010E946903882309F4B9CF89818B
:100B800090E0982F88272A81822BF801958384830F
:100B900020813181232B39F422813381232B19F4D5
:100BA000892B09F4A5CF81E00F900F90DF91CF91B1
:100BB0001F910F9108950F931F93CF93DF93EC0133
:100BC00003E111E0F80160817181762767277627BC
:100BD000072E000C880B990B0E946C0F20E030E070
:100BE0004AE75DE30E94F80F688379838A839B83D9
:100BF000F80162817381762767277627072E000C1C
:100C0000880B990B0E946C0F20E030E04AE75DE30F
:100C10000E94F80F6C837D838E839F83F80164812B
:100C20007581762767277627072E000C880B990B8E
:100C30000E946C0F20E030E04AE75DE30E94F80F6D
:100C4000688779878A879B8781E0DF91CF911F91A1
:100C50000F9108950F931F93CF93DF9300D0CDB7DB
:100C6000DEB78C01AE014E5F5F4F63E080911201F1
:100C70000E946903811102C080E063C0AE014F5F32
:100C80005F4F64E0809112010E9469038823A1F301
:100C9000898190E0982F88272A81822BF8019183FF
:100CA0008083AE014E5F5F4F65E0809112010E942C
:100CB0006903882309F3AE014F5F5F4F66E08091BF
:100CC00012010E9469038823B9F2898190E0982F6C
:100CD00088272A81822BF80193838283AE014E5F9D
:100CE0005F4F67E0809112010E946903882321F21F
:100CF000AE014F5F5F4F68E0809112010E9469036F
:100D0000882309F4B9CF898190E0982F88272A8118
:100D1000822BF8019583848341E16AE0809112017E
:100D20000E944503F80180819181892B49F48281D9
:100D30009381892B29F484819581892B09F49CCF97
:100D400081E00F900F90DF91CF911F910F91089547
:100D50002F923F924F925F926F927F928F929F92CB
:100D6000AF92BF92CF92DF92EF92FF920F931F93B9
:100D7000CF93DF93CDB7DEB7A4970FB6F894DEBF5D
:100D80000FBECDBF4C017CA36BA37A0146E16AE0A4
:100D9000809112010E9445038FE39CE90197F1F7CE
:100DA00000C0000081E090E89A8F898F9C8F8B8F24
:100DB0009E8F8D8F8FEF9FE79C8B8B8B9E8B8D8B68
:100DC000988F8F8B0CED15E01E019DE0290E311CD4
:100DD000C1010E942A06A1016E01E3E1CE0ED11CE1
:100DE000DE015996BD01FA0181919191AF01F601A1
:100DF000208131818217930714F4918380832D9190
:100E00003C911197281739071CF411969C938E93E7
:100E1000F2E0CF0ED11C1296C616D70621F78FE747
:100E20009BEB0197F1F700C000000150110981F61A
:100E3000098D1A8DAB88BC886B8C7C8C4D885E8844
:100E4000ED8DFE8DF8A3EF8FCF88D88CB8016A0D99
:100E50007B1D77FF02C06F5F7F4F75956795072EEB
:100E6000000C880B990B0E946C0F20E030EE4FEBCA
:100E70005FE30E94F80FF7012081318142815381A5
:100E80000E94F80FF4016083718382839383B3011E
:100E9000640D751D77FF02C06F5F7F4F7595679575
:100EA000072E000C880B990B0E946C0F20E030EE8F
:100EB0004FEB5FE30E94F80FF701248135814681F3
:100EC00057810E94F80FF4016483758386839783AA
:100ED0006F8D78A16C0D7D1D77FF02C06F5F7F4F16
:100EE00075956795072E000C880B990B0E946C0F67
:100EF00020E030EE4FEB5FE30E94F80FF701208512
:100F00003185428553850E94F80FF401608771870F
:100F100082879387B8016A197B09072E000C880B1A
:100F2000990B0E946C0FF70120813181428153811E
:100F30000E94F80F20E030E040E05FE30E94F80FED
:100F40004B015C01B30164197509072E000C880B75
:100F5000990B0E946C0FF7012481358146815781DE
:100F60000E94F80F20E030E040E05FE30E94F80FBD
:100F70002B013C016F8D78A16C197D09072E000CA7
:100F8000880B990B0E946C0FF701208531854285F3
:100F900053850E94F80F20E030E040E05FE30E94BC
:100FA000F80F6F8F78A389A39AA3A3019201C501BB
:100FB000B4010E948C0E2F8D38A149A15AA10E9424
:100FC0008C0E20E030E040E450E40E94F80E6B010B
:100FD0007C018E010F5F1F4F25E045E0C501B40184
:100FE0000E946510F80181918F010E940F03201665
:100FF0003106C1F7A5019401C701B6010E94F80EA0
:10100000EBA1FCA16083718382839383A30192018E
:10101000C701B6010E94F80EEBA1FCA164837583A1
:10102000868397832F8D38A149A15AA1C701B601A4
:101030000E94F80EEBA1FCA16087718782879387DD
:10104000A4960FB6F894DEBF0FBECDBFDF91CF914F
:101050001F910F91FF90EF90DF90CF90BF90AF90D6
:101060009F908F907F906F905F904F903F902F90C8
:1010700008958F929F92AF92BF92CF92DF92EF929C
:10108000FF920F931F93CF93DF937C015B016A0163
:101090004901EAE8F1E002811381102701271027B6
:1010A000C481D581DC27CD27DC276081718176273B
:1010B00067277627072E000C880B990B0E946C0F70
:1010C00020E030E040E251E40E94F80F20E030E8F8
:1010D00049E955E40E94F80F20E030E040E058E391
:1010E0000E94F80FF40120813181428153810E94D6
:1010F000F80FF50120813181428153810E948B0ECE
:10110000F60120813181428153810E94F80EF7015E
:101110006083718382839383B801110F880B990BCD
:101120000E946C0F20E030E040E251E40E94F80F92
:1011300020E030E849E955E40E94F80F20E030E073
:1011400040E058E30E94F80FF40124813581468184
:1011500057810E94F80FF50124813581468157811E
:101160000E948B0EF60124813581468157810E94B1
:10117000F80EF7016483758386839783BE01DD0FC4
:10118000880B990B0E946C0F20E030E040E251E4A4
:101190000E94F80F20E030E849E955E40E94F80F7A
:1011A00020E030E040E058E30E94F80FF401208591
:1011B0003185428553850E94F80FF50120853185E0
:1011C000428553850E948B0EF6012085318542852C
:1011D00053850E94F80EF701608771878287938795
:1011E00081E0DF91CF911F910F91FF90EF90DF9001
:1011F000CF90BF90AF909F908F900895CF93DF9343
:10120000EC01488163E1809190010E94450349818E
:1012100064E1809190010E9445034A8165E18091DB
:1012200090010E9445034B8166E1809190010E94EC
:1012300045034C8167E1809190010E9445034D81F7
:1012400068E180919001DF91CF910C944503CF9399
:10125000DF93EC01488167E7809190010E9445038C
:10126000498168E7809190010E9445034A816AE7BD
:10127000809190010E9445034B816BE78091900122
:101280000E9445034C816DE7809190010E944503C7
:101290004D816EE780919001DF91CF910C944503D1
:1012A0002F923F924F925F926F927F928F929F9276
:1012B000AF92BF92CF92DF92EF92FF920F931F9364
:1012C000CF93DF93CDB7DEB7E8970FB6F894DEBFC4
:1012D0000FBECDBF1C017BA76AA71D861E861F8679
:1012E000188A198A1A8A1B8A1C8A1D8A1E8A1F8AD2
:1012F000188E40E86BE6809190010E9445030FEF45
:1013000011EE24E0015010402040E1F700C0000041
:1013100040E06BE6809190010E94450340E06CE65E
:10132000809190010E9445033FEF43EC59E031501A
:1013300040405040E1F700C0000040E068E3809189
:1013400090010E94450340E063E2809190010E9479
:10135000450340E064E2809190010E94450340E033
:101360006AE6809190010E9445034CE06AE6809114
:1013700090010E9445038FE59AEE0197F1F700C0B6
:10138000000041E06AE1809190010E94450340E045
:1013900069E1809190010E94450340E06BE18091FA
:1013A00090010E94450340E06CE1809190010E9411
:1013B000450308EC08AB412C512C3201812C912CB7
:1013C00054011CA61DA61EA61FA6CE014F960E9464
:1013D0009E04CE0149960E9466056F8D78A1CB01CF
:1013E000770FAA0BBB0B4D855E856F8578896C01E5
:1013F0007D01C40ED51EE61EF71EC701B601CD86BF
:10140000DE86EF86F88AC9A0DAA07601DD0C000B33
:10141000110BE9AAFAAA0BAB1CAB09891A892B8913
:101420003C89C9A8DAA8EBA8FCA8C00ED11EE21E10
:10143000F31EC9AADAAAEBAAFCAAC98ADA8AEB8A3D
:10144000FC8A0BA11CA19801110F440B550BCD88F0
:10145000DE88EF88F88C2C0D3D1D4E1D5F1D2DABD9
:101460003EAB4FAB58AF2D8B3E8B4F8B588F098DBA
:101470001A8D012E000C220B330B400E511E621EE2
:10148000731E0B8D1C8D012E000C220B330B800E56
:10149000911EA21EB31E0D8D1E8D012E000C220B5F
:1014A000330BCCA4DDA4EEA4FFA4C00ED11EE21E1B
:1014B000F31ECCA6DDA6EEA6FFA608A9015008AB38
:1014C000011183CF58ECC52ED12CE12CF12CA701B2
:1014D00096010E946C0E2D873E874F87588B69A915
:1014E0007AA98BA99CA9A70196010E946C0E298B51
:1014F0003A8B4B8B5C8B6DA97EA98FA998ADA70108
:1015000096010E946C0EDA01C90112161306140628
:10151000150624F49054A109B10903C0905CAF4FA3
:10152000BF4F8D8B9E8BAF8BB88F90EEC92E9CEFEB
:10153000D92EEE24EA94FE2CC301B201A701960134
:101540000E946C0EAAA5BBA53C9311962C93C501D5
:10155000B401A70196010E946C0EEAA5FBA5328397
:1015600023836CA57DA58EA59FA5A70196010E944A
:101570006C0EAAA5BBA514963C93149715962C93B4
:101580001597CD010E94FE08AE01475D5F4F68E7E9
:10159000809190010E946903AE01485D5F4F67E74B
:1015A000809190010E94690388A590E0982F882778
:1015B00029A5822BA0E0B0E089839A83AB83BC830A
:1015C000AE01475D5F4F6BE7809190010E94690318
:1015D000AE01485D5F4F6AE7809190010E94690308
:1015E00088A590E0982F882729A5822BA0E0B0E05D
:1015F0008D839E83AF83B887AE01475D5F4F6EE7F3
:10160000809190010E946903AE01485D5F4F6DE7D4
:10161000809190010E94690388A590E0982F882707
:1016200029A5822BA0E0B0E089879A87AB87BC8789
:10163000FE013196AE01435F5F4F9E012B5D3F4F30
:10164000BA0111E080809180A280B380D90180FE30
:1016500002C01C9301C01C92DA01CD90DD90ED9088
:10166000FD90AD0183E0D594C7948A95E1F70D2CE8
:10167000000CEE08FF088C189D08AE08BF08808299
:101680009182A282B382D9010D919D01D501C4013D
:10169000002311F0816003C08E7FAA27BB278083BF
:1016A0009183A283B38334966E177F0759F689819D
:1016B0009A81F101908381838D819E8192838383BE
:1016C00089859A8594838583C1010E942709E896BC
:1016D0000FB6F894DEBF0FBECDBFDF91CF911F9143
:1016E0000F91FF90EF90DF90CF90BF90AF909F90C1
:1016F0008F907F906F905F904F903F902F900895C4
:101700006F927F928F929F92AF92BF92CF92DF9211
:10171000EF92FF920F931F93CF93DF9300D000D0EF
:1017200000D0CDB7DEB75C014B01CE0101967C0144
:101730006C0100E010E03C01C8010E943C03F6018E
:1017400081936F010F5F1F4F06301105A9F7C70185
:101750000E942709C8010E943C03F70181937F0181
:101760000F5F1F4F0C301105A9F7C3010E94FE083F
:1017700065017801F4E0EF0EF11C5601C8010E94EA
:101780003C03F50181935F010F5F1F4F0E151F058D
:10179000A9F7F4E0CF0ED11C870188E1E816F10427
:1017A00041F78401570194E0A90EB11C6801C701FB
:1017B0000E943C03F60181936F01FFEFEF1AFF0ACD
:1017C000EA14FB04A1F70C5F1F4F84E2E816F10452
:1017D00049F726960FB6F894DEBF0FBECDBFDF9156
:1017E000CF911F910F91FF90EF90DF90CF90BF901E
:1017F000AF909F908F907F906F900895E199FECF6A
:101800009F709FBB8EBB6DBB84E08CBB86E08CBBA6
:101810000895FC01962F92959F70906391836F704D
:1018200060636A330CF0695F60839A3314F0995FE8
:1018300091830895CF92DF92EF92FF920F931F93BF
:10184000CF93DF93CDB7DEB7A6970FB6F894DEBF80
:101850000FBECDBF8FEF81BB8BE182BB0E94F10237
:1018600081E1809370002FEF81EE94E02150804061
:101870009040E1F700C0000083E50E940F0384E779
:101880000E940F0381E60E940F0382E70E940F036C
:1018900084E70E940F038BE30E940F0388E60E94F7
:1018A0009B038823E1F08DE40E940F038BE30E94E9
:1018B0000F038AE00E940F0364E871E08CE091E07E
:1018C0000E94500981E40E940F038AE30E940F03E3
:1018D0009CE0E92E91E0F92E00E010E004C086E4DF
:1018E0000E940F03FFCF80E20E940F036701F70100
:1018F00061917F01C8010E94FE0B0F5F1F4FF6012F
:101900006081CE0185960E94090C8EA10E940F0372
:101910008DA10E940F030630110529F78AE00E946D
:101920000F0387E40E940F038AE30E940F0384E8F9
:10193000E82E81E0F82E80E20E940F036701F70194
:1019400061917F01C8010E94FE0B0F5F1F4FF601DE
:101950006081CE0185960E94090C8EA10E940F0322
:101960008DA10E940F030C30110529F78AE00E9417
:101970000F0388E60E949B03BE01675E7F4F8CE0E9
:101980000E94E303882331F181E40E940F038BE37B
:101990000E940F038AE00E940F03AE01475E5F4F73
:1019A000BE016F5F7F4FCE010D960E94A8068DE2AB
:1019B0000E940F038AE00E940F038DE40E940F0330
:1019C00082E40E940F038AE30E940F03CE010D966A
:1019D0007C0104C086E40E940F03FFCF80E20E94D6
:1019E0000F036701F70161917F01C8010E94FE0B9F
:1019F0000F5F1F4FF6016081CE0185960E94090C92
:101A00008EA10E940F038DA10E940F0300311105CA
:101A100029F780E20E940F037E01F1E1EF0EF11C35
:101A200080E20E940F036701F70161917F01C80105
:101A30000E94FE0B0F5F1F4FF6016081CE0185965D
:101A40000E94090C8EA10E940F038DA10E940F031A
:101A50000431110529F780E20E940F037E01F5E1B0
:101A6000EF0EF11C80E20E940F036701F701619104
:101A70007F01C8010E94FE0B0F5F1F4FF6016081BE
:101A8000CE0185960E94090C8EA10E940F038DA1A4
:101A90000E940F030831110529F78AE00E940F0305
:101AA0008DE40E940F0383E50E940F038AE30E94E6
:101AB0000F03CE0101967C0180E20E940F036701B3
:101AC000F70161917F01C8010E94FE0B0F5F1F4F5C
:101AD000F6016081CE0185960E94090C8EA10E94BC
:101AE0000F038DA10E940F030C31110529F780E22D
:101AF0000E940F037E01F5E0EF0EF11C80E20E94D0
:101B00000F036701F70161917F01C8010E94FE0B7D
:101B10000F5F1F4FF6016081CE0185960E94090C70
:101B20008EA10E940F038DA10E940F0300321105A8
:101B300029F780E20E940F037E01F9E0EF0EF11C0D
:101B400080E20E940F036701F70161917F01C801E4
:101B50000E94FE0B0F5F1F4FF6016081CE0185963C
:101B60000E94090C8EA10E940F038DA10E940F03F9
:101B70000432110529F78AE00E940F038DE40E94C8
:101B80000F0386E40E940F038AE30E940F03CE0135
:101B900049967C0180E20E940F036701F701619181
:101BA0007F01C8010E94FE0B0F5F1F4FF60160818D
:101BB000CE0185960E94090C8EA10E940F038DA173
:101BC0000E940F030832110529F780E20E940F03DB
:101BD0007E01FDE1EF0EF11C80E20E940F03670120
:101BE000F70161917F01C8010E94FE0B0F5F1F4F3B
:101BF000F6016081CE0185960E94090C8EA10E949B
:101C00000F038DA10E940F030C32110529F780E20A
:101C10000E940F037E01F1E2EF0EF11C80E20E94B0
:101C20000F036701F70161917F01C8010E94FE0B5C
:101C30000F5F1F4FF6016081CE0185960E94090C4F
:101C40008EA10E940F038DA10E940F030033110586
:101C500029F78AE00E940F0385E40E940F038EE6B5
:101C60000E940F0384E60E940F038EE20E940F037E
:101C70008AE00E940F03A6960FB6F894DEBF0FBE4F
:101C8000CDBFDF91CF911F910F91FF90EF90DF902B
:101C9000CF900895A1E21A2EAA1BBB1BFD010DC017
:101CA000AA1FBB1FEE1FFF1FA217B307E407F5070C
:101CB00020F0A21BB30BE40BF50B661F771F881FE8
:101CC000991F1A9469F760957095809590959B017E
:101CD000AC01BD01CF010895052E97FB1EF40094C1
:101CE0000E94830E57FD07D00E944A0E07FC03D0C6
:101CF0004EF40C94830E50954095309521953F4FAE
:101D00004F4F5F4F089590958095709561957F4FE7
:101D10008F4F9F4F08955058BB27AA270E94A30EAC
:101D20000C94BE0F0E94B00F38F00E94B70F20F045
:101D300039F49F3F19F426F40C94AD0F0EF4E0959E
:101D4000E7FB0C94A70FE92F0E94CF0F58F3BA17A7
:101D5000620773078407950720F079F4A6F50C94C1
:101D6000F10F0EF4E0950B2EBA2FA02D0B01B90147
:101D700090010C01CA01A0011124FF27591B99F001
:101D8000593F50F4503E68F11A16F040A22F232F0D
:101D9000342F4427585FF3CF469537952795A7955D
:101DA000F0405395C9F77EF41F16BA0B620B730B04
:101DB000840BBAF09150A1F0FF0FBB1F661F771F75
:101DC000881FC2F70EC0BA0F621F731F841F48F42A
:101DD000879577956795B795F7959E3F08F0B0CFB3
:101DE0009395880F08F09927EE0F9795879508959A
:101DF0000E940C0F0C94BE0F0E94B70F58F00E9467
:101E0000B00F40F029F45F3F29F00C94A70F511157
:101E10000C94F20F0C94AD0F0E94CF0F68F399232E
:101E2000B1F3552391F3951B550BBB27AA276217D6
:101E30007307840738F09F5F5F4F220F331F441FE3
:101E4000AA1FA9F335D00E2E3AF0E0E832D0915017
:101E50005040E695001CCAF72BD0FE2F29D0660F04
:101E6000771F881FBB1F261737074807AB07B0E847
:101E700009F0BB0B802DBF01FF2793585F4F3AF04D
:101E80009E3F510578F00C94A70F0C94F20F5F3F22
:101E9000E4F3983ED4F3869577956795B795F795D3
:101EA0009F5FC9F7880F911D9695879597F90895BB
:101EB000E1E0660F771F881FBB1F62177307840757
:101EC000BA0720F0621B730B840BBA0BEE1F88F766
:101ED000E0950895E89409C097FB3EF490958095AD
:101EE000709561957F4F8F4F9F4F9923A9F0F92FE0
:101EF00096E9BB279395F695879577956795B7955E
:101F0000F111F8CFFAF4BB0F11F460FF1BC06F5F43
:101F10007F4F8F4F9F4F16C0882311F096E911C055
:101F2000772321F09EE8872F762F05C0662371F076
:101F300096E8862F70E060E02AF09A95660F771F8A
:101F4000881FDAF7880F9695879597F9089597F97E
:101F50009F6780E870E060E008959FEF80EC08954F
:101F600000240A9416161706180609060895002478
:101F70000A9412161306140605060895092E0394F2
:101F8000000C11F4882352F0BB0F40F4BF2B11F466
:101F900060FF04C06F5F7F4F8F4F9F4F089557FDC5
:101FA0009058440F551F59F05F3F71F04795880FC7
:101FB00097FB991F61F09F3F79F08795089512165E
:101FC00013061406551FF2CF4695F1DF08C016160A
:101FD00017061806991FF1CF8695710561050894BB
:101FE0000895E894BB2766277727CB0197F90895D2
:101FF0000E940B100C94BE0F0E94B00F38F00E948C
:10200000B70F20F0952311F00C94A70F0C94AD0F8F
:1020100011240C94F20F0E94CF0F70F3959FC1F31F
:10202000950F50E0551F629FF001729FBB27F00D86
:10203000B11D639FAA27F00DB11DAA1F649F6627DB
:10204000B00DA11D661F829F2227B00DA11D621F2A
:10205000739FB00DA11D621F839FA00D611D221FE4
:10206000749F3327A00D611D231F849F600D211DC8
:10207000822F762F6A2F11249F5750409AF0F1F04B
:1020800088234AF0EE0FFF1FBB1F661F771F881FB4
:1020900091505040A9F79E3F510580F00C94A70F36
:1020A0000C94F20F5F3FE4F3983ED4F38695779556
:1020B0006795B795F795E7959F5FC1F7FE2B880F5A
:1020C000911D9695879597F90895EF920F931F9319
:1020D000CF93DF93E80147FD02C034E001C034E153
:1020E000042E000C550B57FF03C051954195510923
:1020F000E32E022F242FAE010E948510CE01DF9126
:10210000CF911F910F91EF9008958F929F92AF9270
:10211000BF92CF92DF92EF92FF920F931F93CF93D4
:10212000DF93CDB7DEB729970FB6F894DEBF0FBEA9
:10213000CDBF6A01122FB02E2BE3201720F0FF2411
:10214000F394F00E02C02CE3F22E0F2D27E0AE0127
:102150004F5F5F4F0E94FC11BC014981842F897041
:10216000813031F0E1FC06C0E0FE06C090E205C01F
:102170009DE203C09BE201C090E05E2D507143FFE1
:102180003CC0911102C083E001C084E0811718F4C3
:10219000212F281B01C020E051110BC0F601822F16
:1021A00030E2882319F031938150FBCFC20ED11C4D
:1021B00020E0992329F0D6019C93F60131966F0116
:1021C000C6010396E2FE0AC03EE4D6013C9341E418
:1021D00011964C93119712963C9306C03EE6F60179
:1021E000308341E641833283FC01322F40E23323C6
:1021F00009F442C041933150FACF42FF44C09111DB
:1022000002C083E001C084E0811718F4212F281B4D
:1022100001C020E051110BC0F601822F30E288236B
:1022200019F031938150FBCFC20ED11C20E09923CD
:1022300029F0D6019C93F60131966F01C6010396F1
:10224000E2FE0BC039E4D6013C933EE411963C9388
:10225000119736E412963C9307C039E6F6013083B5
:102260003EE6318336E63283FC01322F40E23323EF
:1022700019F041933150FBCFFC01E20FF11D1082A8
:102280008EEF9FEFA6C021E030E0911102C020E068
:1022900030E0161617061CF4FB01319602C0E1E08F
:1022A000F0E02E0F3F1FBB2021F0EB2DF0E0319628
:1022B00002C0E0E0F0E02E0F3F1FE12FF0E02E170C
:1022C0003F071CF4121B212F01C020E08E2D8871C6
:1022D00059F4F601822F30E2882319F031938150AE
:1022E000FBCFC20ED11C20E0992329F0D6019C938C
:1022F000F60131966F0151110BC0F601822F90E368
:10230000882319F091938150FBCFC20ED11C20E09D
:102310000F2D060F9A81342F307144FF03C0913383
:1023200009F40150101624F4093018F008E001C037
:1023300001E0AB0177FF02C040E050E0FB01E41B8D
:10234000F50BA1E0B0E0AC0FBD1FEA0FFB1F8EE262
:10235000A82E4B01801A91080B2D10E011950195C4
:1023600011094F3FBFEF5B0721F4D601AC921196E4
:102370006D01641775072CF08416950614F481819D
:1023800001C080E3415051093196D60111967D017B
:102390004017510724F0D6018C936701E2CF6417F0
:1023A000750739F4963320F4953319F4311101C0CF
:1023B00081E3F6018083F701822F90E2882319F0F0
:1023C00091938150FBCFF701E20FF11D108280E065
:1023D00090E029960FB6F894DEBF0FBECDBFDF9117
:1023E000CF911F910F91FF90EF90DF90CF90BF9012
:1023F000AF909F908F900895283008F027E0332702
:10240000DA01990F311D87FD916000966105710514
:1024100039F432602E5F3D9330E32A95E1F7089559
:102420009F3F30F080387105610509F03C5F3C5FEB
:102430003D93913008F08068911DDF93CF931F93F7
:102440000F93FF92EF92192F987F9695E92F96950B
:102450009695E90FFF27EA51FF4F99273327EE247E
:10246000FF24A701E70105900894079428F4360F8C
:10247000E71EF81E491F511D660F771F881F991F01
:102480000694A1F70590079428F4E70EF81E491F5B
:10249000561FC11D770F881F991F661F0694A1F74D
:1024A0000590079428F4F80E491F561FC71FD11D29
:1024B000880F991F661F771F0694A1F70590079450
:1024C00020F4490F561FC71FD81F990F661F771F8B
:1024D000881F0694A9F784911095177041F0D6953E
:1024E000C79557954795F794E7941A95C1F7ECE887
:1024F000F0E068941590159135916591959105904E
:102500007FE27395E118F10A430B560BC90BD00912
:10251000C0F7E10CF11E431F561FC91FD01D7EF4EA
:10252000703311F48A95E6CFE894015030F0080F2B
:102530000AF40027021708F4202F2395022F7A337C
:1025400028F079E37D932A95E9F710C07D932A95C9
:1025500089F6069497956795379517951794E1181E
:10256000F10A430B560BC90BD00998F023957E91C5
:1025700073957A3308F070E37C932013B8F77E915B
:1025800070617D9330F0839571E37D9370E32A95BC
:10259000E1F71124EF90FF900F911F91CF91DF9100
:0C25A000992787FD90950895F894FFCFCF
:00000001FF
